:020000040800F2
:1000000000800120A9F2000811EB000815EB0008A0
:1000100017EB000819EB00081BEB000800000000BC
:10002000000000000000000000000000A1B2000875
:100030001DEB00080000000031B3000895B3000874
:10004000F9F20008F9F20008F9F20008F9F20008E4
:10005000F9F20008F9F2000821EB0008F9F20008B3
:10006000F9F20008F9F20008F9F20008F9F20008C4
:10007000F9F20008F9F20008F9F20008F9F20008B4
:10008000F9F20008F9F20008F9F20008F9F20008A4
:10009000F9F20008F9F20008F9F20008F9F2000894
:1000A000F9F20008F9F20008F9F20008F9F2000884
:1000B000F9F200082DEB0008F9F20008F9F2000847
:1000C000F9F20008F9F20008F9F20008F9F2000864
:1000D000F9F20008F9F20008F9F20008F9F2000854
:1000E00039EB0008F9F20008F9F20008F9F200080B
:1000F000F9F20008F9F20008F9F20008F9F2000834
:10010000F9F20008F9F20008F9F20008F9F2000823
:10011000F9F20008F9F20008F9F2000845EB0008CE
:10012000F9F20008F9F20008F9F20008F9F2000803
:10013000F9F20008F9F20008F9F20008F9F20008F3
:10014000F9F20008F9F20008F9F20008F9F20008E3
:10015000F9F20008F9F20008F9F20008F9F20008D3
:10016000F9F20008F9F20008F9F20008F9F20008C3
:10017000F9F20008F9F20008F9F2000800000000A6
:08018000F9F20008F9F2000891
:1001900010B5054C237833B9044B13B10448AFF3C1
:1001A00000800123237010BDC40600200000000061
:1001B000EC60010808B5034B1BB103490348AFF3DA
:1001C000008008BD00000000C8060020EC600108A7
:1001D00070B44C1E4C2C2DD8DFE804F03C3C3C3C69
:1001E0002C2C2C2C27273C27272727272727272776
:1001F0002727272C28282828282828283C2727276D
:1002000027272C27283E3C2C3C28283E2C2C27270F
:10021000273C3C3C3C3C273C3C273C2C2C272727BC
:100220002C2C2C2727273C283C001AB144698569CF
:10023000AC4202DB002070BC704704EB4405066949
:10024000AD00013444617019F5D07155426083608E
:1002500070BC7047002AEDD0002BEBD04469856953
:10026000AC42E7DAE9E700BF2DE9F047C368B2F135
:10027000000A04460E461A7815BF4FF01E094FF0CB
:100280001B094FF01D084FF01A0814BF1C2719272F
:100290000D4618E0562A1FD04B2A24D0442A2DD1CF
:1002A0005A78782A27D1226B02331132E360226315
:1002B0004C2100231A462046FFF78AFF2860C8B168
:1002C000E3681A78051D722AE4D1226B01330932E2
:1002D000E36022633946ECE7226B01330932E360C5
:1002E00022634146E5E7226B01330632E360226375
:1002F0004946DEE705462846BDE8F087BAF1000F1B
:10030000F9D1462AF7D1B542F5D01D201E211C2275
:1003100007E01B2B0BD0192B00D132700436B542ED
:10032000E9D0366833781A2BF3D13070F6E73170A4
:10033000F4E700BF10B4C3681C78522C0A460FD0F3
:100340004F2C03D008465DF8044B7047016B033116
:10035000016320210133C3605DF8044B002337E7BC
:10036000016B023101631F21F4E700BF002A4DD069
:1003700070B505460E4614462378013B4C2B2BD80E
:10038000DFE803F03636363F2A2A27273636363658
:1003900036363636363636363636362A3636363609
:1003A0003636363636362F2F36362A363636362B12
:1003B000363636362A2736363636363636363636F8
:1003C0003636362A2A362B2B2B2B2A36363636361D
:1003D0003600A468002CCFD170BD6468002CCBD14E
:1003E000FAE762681378052B03D133680133336071
:1003F000626831462846FFF7B9FFA468002CBBD1DC
:10040000EAE72B6801332B606268F2E7704700BFB0
:100410007AB32DE9F0410D460446D0F80011AF182B
:100420004FF0000809E00B46BD4201F10101C4F89C
:100430000011E65484F8046119D0FF2915F8016B06
:10044000F1D1D4F8083184F8FF80D4F80C2120468B
:100450009847D4F824310133C4F824310023012112
:10046000BD42C4F80011E65484F80461E5D1BDE84A
:10047000F081704770B4026811786E2918D0A1F12C
:100480003003092B1ED800260023013203EB83031F
:10049000026001EB43041178A1F13005092DA4F1AC
:1004A0003003F2D90EB1C4F13003184670BC704766
:1004B000531C03605178A1F13002092A02D81A4670
:1004C0000126E1E70023F0E743698269934210B512
:1004D0000FDA03EB43020169920001338C18436188
:1004E00005D041230C308B54FFF7C4FF60602046D9
:1004F00010BD0024204610BD10B5C3681A785F2ACD
:1005000004460DD06E2A0FD00C30FFF7B3FF013038
:100510000AD4E3681A785F2A06D10133E36010BD7C
:1005200001330020E36010BD4FF0FF3010BD00BF6D
:1005300038B5C3681A78542A01D0002038BD013379
:10054000C3600446FFF7D8FF051EF6DBA26A6369A5
:10055000A16901328B42A262EFDA03EB4302216907
:10056000920001338818636102D005238B544560E3
:1005700038BD00BF70B504460C30FFF77BFF061E88
:100580004DDDE56863685B1B9E422BDCA268AB19FE
:100590005207E36004D5AA5D242A04BF0133E36057
:1005A000092E0CDD08221F49284611F01FFB30B927
:1005B0002B7A2E2B19D05F2B17D0242B15D06369E3
:1005C000A26993420EDA03EB4302216992000133E0
:1005D0008818636106D02DB100238B544560866076
:1005E000E06270BD0020E06270BD6B7A4E2BE6D1F8
:1005F000236B6269A16916339E1B8A422663F1DA76
:1006000002EB420321699B000132C8186261EAD003
:100610000025CD54044A426015238360E3E700209F
:1006200070BD00BF7C6F0108886F010870B5C3689A
:10063000C66A1A78422A04460D460FD10133E36098
:100640002046FFF797FF2A4603464B212046FFF737
:10065000BFFDE3681A78422A0546EFD0E6622846D5
:1006600070BD00BF2DE9F0410546C0680378532BEB
:1006700002D00020BDE8F081431CEB604278A2B1BB
:10068000831CEB6042785F2A5AD100232A6A934286
:10069000EFD2AA6AE9690132AA6251F82300BDE8E3
:1006A000F081A2F14103192B4FD9AB6803F0080385
:1006B000002B14BF0124002401D1002969D1464B2D
:1006C000742103F1C40003E01C338342D1D21978B2
:1006D0008A42F9D15E69002E7BD06A69A9698A4293
:1006E00063DA02EB4207D5F810E0D3F81880BF00B8
:1006F00001321EEB07006A6106D04FF0180C0EF8AD
:1007000007C04660C0F80880E862002C4AD0DE6866
:100710001C692B6B914223442B6341DD02EB4203A6
:1007200029699B000132C8186A6103D01822CA5493
:1007300046608460EB681B78422B38D0BDE8F081BE
:10074000A2F13004E3B2092BABD800210DE0303B1D
:1007500099428ED8E9680A78481C1AB1E8600A788C
:100760005F2A14D0A2F130041946E4B201EBC103B0
:10077000092CA2F1410002EB8303E8D919283FF6C6
:1007800078AF01EBC10302EB8303373BE0E70133B2
:100790007CE7EB681B78433B012B98BF01248EE775
:1007A0000020C7E75E689C68B3E70020ACE701461D
:1007B0002846FFF73BFF00283FF45BAF2B6A6A6ACD
:1007C0009342BBDAE9695A1C41F823002A62BDE86A
:1007D000F081A9696A6998E75C62010838B5044646
:1007E00029B9C3681A7832B15A1CC26019786829CD
:1007F00019D0762901D0002038BD04F10C05284617
:10080000FFF738FEE3681A785F2AF4D10133E3601A
:100810002846FFF72FFEE3681A785F2AEBD10133F1
:10082000E360012038BD04F10C00FFF723FEF2E77E
:10083000D0F810319BB10A685B68002A9B6809DB1D
:1008400023B907E042B19B68013A1BB119782F29FF
:10085000F8D00023184670475B681846704701229D
:10086000C0F81821F6E700BF002941D038B5054689
:100870000C4623784B2B27D8DFE803F02E262626BC
:1008800026302E2B2B2626262626262626262626EC
:10089000262626262E2626262626262626262626F0
:1008A0002626262E262626262E262626262E2B26CB
:1008B0002626262626262626262626262E2E2626C8
:1008C000262E2E2E26262E2E61682846FFF7CCFFD8
:1008D00018B9A468002CCCD1002038BD211D2846B1
:1008E000FFF7A6FF0028F7D003782F2BF4D138BDEF
:1008F00000207047F0B515465268AC684B1C134495
:10090000A34283B00E46074613D8EC680CB103B07F
:10091000F0BD95E8090032463946184411F075F9E2
:100920002B686A6833449C546B681E446E6003B045
:10093000F0BDEA68002AEAD11CB9022B4FF002048C
:1009400002D96400A342FCD82146286811F072FA4B
:1009500010B12860AC60D8E70190286810F01EFF45
:10096000019B2B6001226B60AB60EA60CFE700BFA8
:100970002DE9F04188B00A4604461B4901A811F050
:1009800035FC01A805F0D6FF50B301ADD4F8001135
:100990002F184FF0000809E00B46BD4201F101019C
:1009A000C4F80011E65484F8046119D0FF2915F841
:1009B000016BF1D1D4F8083184F8FF80D4F80C2110
:1009C00020469847D4F824310133C4F82431002359
:1009D0000121BD42C4F80011E65484F80461E5D158
:1009E00008B0BDE8F08100BFA06F01082DE9F04F0D
:1009F000C3681D7883B000228D420446019200F046
:100A0000C6818846DFF89C9401AE23E0662A4CD06C
:100A1000A2F13001092900F21782204601F010FBF3
:100A20000546002800F07081E3681B78492B00F030
:100A3000928067632A4600232E212046FFF7C8FBD9
:100A4000306000285BD0E3681A78424500F1080660
:100A500000F007810125676B65631A784C2A47D03F
:100A6000542A51D0732AD1D15A78722A00F0E280E8
:100A7000702A00F0FD80204601F022FA0546002889
:100A800000F042812B78312B43D0322B5CD0332BBA
:100A90007BD1E3681A785F2A40F0C1800133E360BC
:100AA00045212046FFF7A2FFBCE05A78702AE2D128
:100AB0009A1CE2609A78542A69D02046FFF71CFD00
:100AC0006FF00043984260D0431C5ED001306369F0
:100AD000A269934259DA2269591C03EB430312EBD2
:100AE0008305616151D0062102F823106860A0E7F8
:100AF000204601F0F3FE05466763002D9AD10025DC
:100B0000284603B0BDE8F08F2046FFF711FD0546EB
:100B1000F2E7D5F804B0236BDBF80820DBF800A07F
:100B2000023A134423635046494605F0F9FE002873
:100B300000F0E680DBF80C30032B26D8DFE813F05A
:100B40002B0035013300A5006B68032B1DD8DFE8AF
:100B500003F022661C1C204600F004FC2A460346D3
:100B600004212046FFF734FB0546C5E7742A82D1ED
:100B70005B786C2B7FF47FAF204600F0B9FDE36813
:100B80005A780546002A40F069816763B7E7033366
:100B9000E36000209BE72A46002335212046FFF72B
:100BA00017FB0546A8E7BAF1000FEED06B681B688B
:100BB0005A78632A00F0D2809AF80030662B00F051
:100BC000EF80204600F070F98346B149504605F0A9
:100BD000A7FE002800F09D80AE49504605F0A0FE1B
:100BE00030B15046AC4905F09BFE002840F08380B0
:100BF000204601F025FAE3681B78492B824600F075
:100C0000E98053465A4638212046FFF7E1FA2A4642
:100C1000034637212046FFF7DBFA05466CE72046FE
:100C200000F042F903462A4636212046FFF7D0FA63
:100C3000054661E70233E360204600F059FD824635
:100C4000204601F0FDF9E3681B78492B834600F04C
:100C500093800346294652462046FFF7B9FA0546D7
:100C60004AE7019D01332846E36003B0BDE8F08FF9
:100C70000233E360204600F017F9002302464A21C0
:100C80002046FFF7A5FA054636E7BAF1000F3FF414
:100C90007CAF8249504605F043FE00283FD09AF8C9
:100CA0000030662B00F0BD806E2B7FF46EAF9AF89B
:100CB0000130772B02D0612B7FF467AF5F21204694
:100CC000FFF794FE8246204600F012FDE3681A7892
:100CD000452A834600F0A180702A00F0A680692A88
:100CE0007FF453AF5B786C2B7FF44FAF204600F05E
:100CF000DBF803461FE0204600F0D6F8824680E786
:100D0000204600F0F5FC8DE72846676303B0BDE898
:100D1000F08F45212046FFF769FE824671E72046A5
:100D200000F0C2F88246204600F0BEF88346204616
:100D300000F0BAF803465A463B212046FFF748FA2E
:100D4000524603463A212046FFF742FA2A46034616
:100D500039212046FFF73CFA0546CDE61B78A3F182
:100D60006302012A03D9723B012B3FF625AF2046CF
:100D700000F0BEFC834628E7204600F0F3FA5A460E
:100D8000034604212046FFF723FA034662E70133B6
:100D9000C3602E21134603B0BDE8F04FFFF718BA29
:100DA000204601F08DF883460FE7BAF1000F3FF4BB
:100DB00036AF9AF80030702B17D06D2B15D05046F7
:100DC000374905F0ADFD00287FF429AF204600F03B
:100DD00065FA27E7204600F0C5FA5246034604218B
:100DE0002046FFF7F5F982460BE79AF801209A4270
:100DF000E5D1E3681A785F2A23D05046284905F0E8
:100E00008FFD00283FD0204600F04EF803461A46DA
:100E100038212046FFF7DCF904E70133E3600023C3
:100E200089E7204601F04CF87CE75A78692A7FF47C
:100E3000ACAE0233E36045212046FFF7D7FD034601
:100E400079E70133E360BAE76F2A15D0692A7FF4A6
:100E50008DAE5A786C2A7FF40EAE00250233E36023
:100E600045212046FFF7C2FD2A4603463021204691
:100E7000FFF7AEF905463FE65A786E2A7FF4FBADE0
:100E80000233E360C9E5204600F008FA0346BEE7F6
:100E9000A86F0108AC6F0108B06F0108B46F0108BA
:100EA000A46F0108AC740108C1680B784C2B00F0EA
:100EB0008780542B00F08680732B2DE9F041044687
:100EC00037D0662B12D0A3F13002092A00F2B88184
:100ED000204601F0B5F8054600286DD0E3681B7880
:100EE000492B00F088802846BDE8F0814B78702BB4
:100EF00039D0204600F0E4FF054600285CD0037896
:100F0000312B61D0322B25D0332B55D1E3681A78A1
:100F10005F2A40F0B4810133E36045212046FFF7AA
:100F200065FD03462A4620463621BDE8F041FFF71D
:100F30004FB94B78722B69D0702BDAD10231C16076
:100F4000FFF7B2FF002302464A212046BDE8F041E8
:100F5000FFF73EB94368032B2ED8DFE813F071008A
:100F600090012D002D008B1CC3608B78542B63D017
:100F7000FFF7C2FAC34333F000431DD00130636969
:100F8000A269934218DA03EB43022169920001330C
:100F90008D186361A7D006238B546860A3E7742B78
:100FA000A7D14B786C2BA4D100F0A2FBE1684B7861
:100FB0000546002B40F04E8100252846BDE8F08113
:100FC00001F08CBCFFF7B4BA4768236BBA683E687F
:100FD000AC49023A13442363304605F0A1FC0028D3
:100FE00000F0AB80FF68032FE6D8DFE817F0290098
:100FF000FF0071003100204600F0B4F92A46034694
:1010000004212046BDE8F041FFF7E2B80231C1609B
:1010100000F06EFB0546204601F012F8E3681B78ED
:10102000492B064600F0AE8003462A4620460121A1
:10103000BDE8F041FFF7CCB80331C16000209EE766
:101040002A46204600233521BDE8F041FFF7C0B80D
:10105000002EB1D08C49304605F062FC002871D0DA
:101060003378662B00F0B2806E2BA5D17378772B86
:1010700001D0612BA0D15F212046FFF7B7FC0646C7
:10108000204600F035FBE3681A78452A074600F051
:101090009980702A00F09E80692A8DD15B786C2B34
:1010A0008AD12046FFF700FF03463A463B212046FF
:1010B000FFF78EF8324603463A212046FFF788F8BC
:1010C0002A46034639212046BDE8F041FFF780B8A3
:1010D000002E3FF471AF6B681B685A78632A44D0C6
:1010E0003378662B59D02046FFF7DEFE0746674966
:1010F000304605F015FC90B36549304605F010FC0C
:1011000028B13046634905F00BFC00284AD120463F
:1011100000F096FFE3681B78492B064647D033461C
:101120003A4638212046FFF753F82A46034637212E
:101130002046BDE8F041FFF74BB8204600F0D8FA52
:101140000346EFE62046FFF7AFFE06462046FFF7D0
:10115000ABFE07462046FFF7A7FE0346A5E745215D
:101160002046FFF743FC0646D9E71B78A3F163024C
:10117000012A02D9723B012BB2D8204600F0B8FAFE
:101180000746B4E7204600F0EDF832460346042156
:101190002046FFF71DF8034647E7204600F090FE83
:1011A0000746A4E72046FFF77FFE0646B7E720463E
:1011B00000F0D8F83246034604212046FFF708F82D
:1011C0000646ACE70133E36000236EE7204600F0FB
:1011D00077FEBAE75A78692A7FF4EEAE0233E3600D
:1011E00045212046FFF702FC03465EE7002E46D06D
:1011F0003378702B15D06D2B13D00027304626493D
:1012000005F08EFBB8B12046FFF74EFE0346002FD7
:101210003FF488AE1A4638212046FEF7D9FF034630
:1012200080E672789A42E8D1E3681A785F2AE5D1BD
:101230000133E360E1E7204600F030F80346E6E7DB
:101240006F2B15D0692B7FF4AAAE4B786C2B7FF4F3
:1012500050AE00250231E16020464521FFF7C6FB74
:101260002A46034630212046BDE8F041FEF7B0BFD4
:101270004B786E2B7FF43DAE0231C16028E600272B
:10128000C1E700BFAC740108B46F0108A86F010882
:10129000AC6F0108B06F0108A46F01082DE9F0439D
:1012A000C268D0F82C801378452B83B004464ED00A
:1012B00002AE002146F8041D0127493B0F2B3ED802
:1012C000DFE803F038383D1B3D3D3D3D3D3D3D3DB4
:1012D0003D3D3D080132D4F83490E260676320461A
:1012E000FFF7E2FDE368C4F834901A78452A054612
:1012F0002AD0002003B0BDE8F083204601F0EEFACA
:10130000054600232F212A462046002DF1D0FEF766
:101310005FFF306000F108060028EAD0E268137829
:10132000452BCAD10198C4F82C800132E26003B089
:10133000BDE8F083204600F015F80546E1E72046B9
:1013400000F0D6F90546DCE70133E360D9E7013266
:101350000023C2602F211A4603B0BDE8F043FEF718
:1013600037BF00BFC2681378493B012B02D8013256
:10137000C26093E7002070472DE9F043C2681378FC
:101380004E3B85B005460C2B70D8DFE803F01E6F8E
:101390006F6F6F5B6F176F6F6F6F07000132002108
:1013A000C26000F0BDFFEB6819784529064600F0E1
:1013B00099800022104605B0BDE8F08300F040FEA1
:1013C0000246104605B0BDE8F0830132C26003A9B1
:1013D0000122FEF749FF81460028EAD00021284675
:1013E000FEF7A8FFEA68B44E147880460027002C68
:1013F00000F0E880442C00F0D180A4F13003DBB28F
:101400001C2B40F2A880A4F16103192B40F2A880A4
:10141000552C00F0DE80532C00F0F180492C00F0B8
:10142000DA80542C00F01F81452C00F04B814D2CAC
:1014300040F0C880002F00F0C580531CEB6054784A
:101440001A46D4E75378742B31D00021FFF70AF9FC
:10145000EB68197849290246B3D10133EB6028467D
:101460000192FFF71BFF019A034617E000F0E8FD29
:10147000EB68197849290246A3D1002A99D0296A34
:10148000686A814295DAEC69481C44F82120286298
:1014900019784939012988BF0023DED9284604215B
:1014A000FEF796FE0246104605B0BDE8F08343699C
:1014B000816902328B42C260C0F2AB8000242846B0
:1014C00000F0BEFD2246034601212846FEF780FEBD
:1014D000296BEB68033129631978492902467FF4A7
:1014E00070AFCAE75A1CEA605978732900F0A380EC
:1014F000642900F0BC802846FFF73EFF0446002820
:1015000072D00378452B00F09480472B00F0918037
:10151000EB681A785F2A40F08C804FF0FF3728463E
:10152000013340F80C3FFEF7A5FF0028FFF641AF5E
:101530007B1C7ED06B69AA69934255DA03EB4302A8
:101540002969013392006B618B184ED04620885474
:101550009F605C6049E026FA03F3D9077FF553AF3B
:10156000284600F06DFD47B3012103463A46284660
:10157000FEF72EFE0746532C1CD0EA681478452C43
:101580003FF43BAFF7B12B6A696A8B421ADAE9691B
:10159000581C41F823702862147828E7537803F028
:1015A000DF03542B28460AD000F04AFD002FDBD180
:1015B0000746E2E7EA68147819E70746DBE700F038
:1015C00097F8F3E700221046C9F8002005B0BDE8FF
:1015D000F0832846E8E7002FF4D00132EA6028467D
:1015E000FFF75CFE0421C0E70023324628460221B3
:1015F000FEF7EEFD0246104605B0BDE8F08301217E
:101600002846FFF72FF8002FAED1EA680746147876
:10161000EDE603EB43020169920001338C1843614C
:101620003FF44DAF00238B54244860600323A36034
:1016300045E72346D9E79A1CEA609A785F2A32D0B8
:101640006B69AA699342CFDA03EB4302296901333C
:1016500092006B618B18C8D000248C5418485860D5
:101660000E229A60C1E72846FEF762FF9EE702332A
:10167000EB602846FEF740FF071EFFF69AAE2846AD
:10168000FFF77AFE044600283FF454AF0378452B59
:101690003FF450AF472B3FF44DAFEB681A785F2A09
:1016A0007FF448AF3BE72846033340F80C3FFEF792
:1016B000E1FE0028C4DA7CE6FF030810C86F0108C9
:1016C000B86F0108C9F80070002F3FF472AEB8F18E
:1016D000000F04D0039BC8F80430CDF80C801378B9
:1016E000452B7FF466AE0132EA60039A69E600BFDB
:1016F0002DE9F043C2681378722B83B0044658D0AA
:10170000562B56D04B2B54D0442B00F09F80A3F186
:1017100030014A2900F28A80DFE811F02A012A010B
:101720002A012A012A012A012A012A012A012A0161
:1017300088008800880088008800880088000B02E4
:1017400088005201880088004C01600188008800F0
:101750008800880088006E012A018601C301880084
:101760009401A201D101F30188008800880088005B
:101770002A018800880088008800880088000C0101
:101780000C010C010C010C010C010C010C010C01F1
:101790000C0188000C010C010C010C018800880070
:1017A00088000C010C013E010C010C010C010C0124
:1017B0000C01002201A92046FEF756FD054600282F
:1017C00034D0E3681B78462B204634D0FFF790FFD7
:1017D000286058B303781F3B012B30D9019A2AB3F4
:1017E000236A616A8B4221DAE06940F82320019D77
:1017F000591C2846216203B0BDE8F0830123456BE4
:101800004363FFF751FB65630246002342212046F4
:10181000FEF7DEFC0546019040B1E3681A782AB174
:101820005A1CE2601B78452B00F0AA800025284650
:1018300003B0BDE8F08300F053FD2860C9E7019ACA
:10184000436842602A6801922B60C7E75378782B7F
:10185000AFD0531CC3605378002BE7D0931CC360F8
:101860005378463B302BE1D801A151F823F000BF5B
:101870005B1D00082D1800082D1800082D18000801
:101880002D1800082D1800082D1800082D18000824
:101890002D1800082D1800082D1800082D18000814
:1018A0002D1800082D180008FD1700082D18000835
:1018B0002D1800082D1800082D1800082D180008F4
:1018C0002D1800082D1800082D1800082D180008E4
:1018D0002D1800082D1800082D1800082F1D0008CD
:1018E0002D180008031D0008E31C0008B91C00089F
:1018F0008B1C00082D1800085D1C0008391C00080E
:101900002D1800082D1800082D1800082D180008A3
:10191000FF1B00082D180008E91B00082D180008FF
:101920002D180008BB1B0008FD1700082D18000823
:10193000851B00086069A569BC49613B03EB830313
:10194000A84201EB830380F23A8200EB4001266952
:10195000890001307518606100F0318227207054D1
:101960006B605968236B01320B44E26023635EE7CE
:101970002046FFF701FD05460190002D3FF456AFCC
:10198000236A626A9342BFF651AFE1695A1C41F87B
:101990002350019D22624AE70132E2602046FEF7B1
:1019A000E9FD0023024628212046FEF711FC0546EA
:1019B0000190E2E7204600F093FC05460190DCE749
:1019C0000132E2602046FFF793FE00230246252104
:1019D0002046FEF7FDFB05460190CEE70132E260AE
:1019E0002046FFF785FE0023024626212046FEF70B
:1019F000EFFB05460190C0E70132E2602046FFF7A9
:101A000077FE0546002800F0BB802046FFF770FEF9
:101A1000002800F0B58003462A462B212046FEF719
:101A2000D7FB05460195A8E70132E2602046FFF7A3
:101A30005FFE0023024624212046FEF7C9FB05462F
:101A400001909AE70132E2602046FFF751FE002341
:101A5000024623212046FEF7BBFB054601908CE79A
:101A60005378A3F13002092A05D95F2B03D0413BFB
:101A7000192B00F2C38100212046FEF7F3FDE36835
:101A800001901B78492B05467FF4D1AE2046FFF725
:101A900069FC2A46034604212046FEF799FB0546C9
:101AA000C0E70132E2602046FFF722FE0023024633
:101AB00022212046FEF78CFB054601905DE720467B
:101AC000FEF736FDE66801903378492B05467FF432
:101AD00054AFA36B002B40F0A98100283FF4A6AEC1
:101AE000236A626A9342BFF6A1AEE1695A1C41F8CB
:101AF000230022622046019DFFF734FC2A4603465C
:101B0000C9E70132E2602046FEF734FDE368019048
:101B10001B78492B054600F07E812046FFF7E8FD43
:101B2000019B024621212046FEF752FB054601900B
:101B300023E7511CE16053785F2B00F04481303B78
:101B4000092B00F24E810B460133E3601A78303ADC
:101B5000092AF9D96269A069824211DA02EB4200CE
:101B60002669800001323518626109D05A1A07D0FF
:101B7000002737546960AA601A785F2A00F09081C4
:101B800000254FE793785F2B00F08081FEF79CFCE7
:101B90000546002D3FF446AFE3681A785F2AEFD17F
:101BA0000133E3602046FFF7A3FD2A4603462D21BB
:101BB0002046FEF70DFB054634E7426983699A42E9
:101BC00080F2FD800C23016903FB02F3CD1802F1C2
:101BD0000102426100F0F380154A2720C8546A6070
:101BE000236B0833236322E6FFF782FD00230246BE
:101BF0004A212046FEF7ECFA05460190BDE642690F
:101C000083699A4280F2DB800C23016903FB02F3B3
:101C1000CD1802F10102426100F0D1802720054A6F
:101C2000C8546A60236B1133236300E62063010804
:101C300078650108A0650108426983699A4280F2CB
:101C4000BE800C23016903FB02F3CD1802F10102EF
:101C5000426100F0B4802720924ABFE7426983695D
:101C60009A4280F2AC800C23016903FB02F3CD1889
:101C700002F10102426100F0A28027208A4AC85482
:101C80006A60236B04332363D1E5426983699A4216
:101C900080F295800C23016903FB02F3CD1802F159
:101CA0000102426100F08B80804A2720C8546A609C
:101CB000236B09332363BAE5426983699A427EDA6A
:101CC0000C23016903FB02F3CD1802F1010242610A
:101CD00075D02720764AC8546A60236B0A33236381
:101CE000A5E5426983699A4269DA0C23016903FB1D
:101CF00002F3CD1802F10102426160D027206D4A43
:101D0000D4E7426983699A42BFF690AD0C2301691A
:101D100003FB02F3CD1802F1010242613FF487ADEB
:101D20000020C854644A6A600E23AB607FE54269B4
:101D300083699A42BFF67AAD0C23016903FB02F373
:101D4000CD1802F1010242613FF471AD0020C85488
:101D50005A4A6A600423AB6069E5436981698B4232
:101D60007ADA006903EB43018900013345182C2618
:101D70006361019546549378303BDBB2092B94BFE5
:101D8000012300232B817BD92046FFF7B1FC019B67
:101D900068605B68002B3FF449AD04F10C00FEF76E
:101DA00069FBE268137813B1531CE3601378019D5B
:101DB000A3F17303B3FA83F35B096B8137E5002367
:101DC00001935B68FFDE00250131E1602046FFF7EB
:101DD0008FFC2A4603462A212046FEF7F9F90546DC
:101DE00020E60123656B63632046FFF75DF86563BA
:101DF000054600283FF4C4AEE368BDE62046FFF781
:101E0000BBFA0546019000283FF410AD0378182B6B
:101E10007FF4B6AD0BE52046FFF7A4FA2A46034649
:101E200004212046FEF7D4F9019076E62046D4F846
:101E30001490D4F82080A76A256BFFF793FAE26824
:101E40001278492A0BD02563E660C4F81490C4F8D0
:101E50002080A762019D90E500231B70FFDE019B9F
:101E6000002B3FF4E3AC226A616A8A42BFF6DEAC23
:101E7000E569511C45F82230019A216203460AE6C1
:101E800004F10C00FEF7F6FA019D7DE70332012311
:101E9000466BC2604363FFF707F86663054678E662
:101EA000194691E78C6501086465010828650108F9
:101EB000506501083C650108D46F0108CC6F01082A
:101EC000F8B5C3681E78844626B35A1CC2605A7897
:101ED0001E78002A58D09A1CC260762E044693F8C9
:101EE00001E043D0632E16D1BEF1760F13D1436BC0
:101EF000856BB3FA83F35B098363FFF7F9FBA36B8D
:101F00000246002B52D0002334212046FEF760F910
:101F1000A563F8BDB646284C4320002204E094BFD8
:101F20005A1C184682422DD0831A03EBD37302EB5E
:101F300063031901671861580D78B542EFD14978EC
:101F40007145ECD1DCF81430DCF81820934219DA32
:101F500003EB4302DCF81010920001338818CCF830
:101F6000143013D031238B544760F8BDAEF13005E7
:101F7000EBB2092BCFD8FEF7FDFA6369A269934251
:101F8000014604DB0020F8BD9646C4E7F8BD03EB2C
:101F90004302266992000133B0186361F2D0002930
:101FA000F0D03223B35445608160F8BD3321204620
:101FB000FEF70EF9ACE700BFB465010830B5C268A2
:101FC00083B000230193137843B3452B26D02E2BE7
:101FD00024D0044601AD15E04F2B16D0FFF788FB47
:101FE000002302462E21C8B12046FEF7F1F82860F2
:101FF000A0B1E268137800F108054BB1452B07D07A
:102000002E2B05D0522B2046E6D15378452BE5D117
:10201000019818B1836823B103B030BD002003B02C
:1020200030BD426811782729F6D15268117C092900
:10203000F2D15168226B521A22634360ECE700BF71
:10204000F8B5C1680B78A3F13002092A044620D9FB
:10205000A3F16102192A25D9A3F14302012A2CD93F
:102060004C2B00F08880552B33D14B786C2B33D020
:10207000742B2ED14B1CC3604B78742B5AD0422B3F
:102080004FF000050CD129462046BDE8F840FEF788
:10209000CDBAFEF76FFAE3681B780546422BF2D003
:1020A0002846F8BDFFF70CFF054618B10378312B21
:1020B00000F0B280E3681B78F0E7C56A25B12A78A2
:1020C000002A6CD0182A6AD0432B00F0BF80442B22
:1020D0006FD000252846F8BD4B1CC3604B786C2B95
:1020E000CDD10231C160FFF769FF0646F0B1E26869
:1020F0001378452BC3D10132E2602046FEF7FCF98C
:10210000002813DB6369A26993420FDA03EB4302F1
:102110002169920001338D186361CBD045238B5424
:102120006E60A860236A626A93421CDBE368002544
:102130001B78B3E70231C160FEF7DEF90028F5DB5A
:102140006369A2699342F1DA03EB430221699200C9
:1021500001338D186361ADD047238B546860236AC7
:10216000626A9342E2DAE169E26841F8235001339E
:102170002362137892E70131C160FEF7FBF905464F
:102180000028A6D0E26813785F2B87D12046013261
:1021900040F80C2FFEF76EF900288BDA99E7236BD5
:1021A000AA68134423630B78432B4FD0442B7FF44E
:1021B00066AF4B78303B052B8BD801A252F823F049
:1021C00015220008D921000811220008D320000898
:1021D0000D2200080922000802276369A269881CF1
:1021E0009342E06056DA03EB430220699200013328
:1021F0008618636105D0002D4FD0082383543771B2
:10220000B5608B78354649E70527E6E70427E4E71C
:102210000327E2E70127E0E74268236B966810682E
:102220001F4907333344236304F07AFB00287FF40B
:1022300041AF2046FEF79EF92A4603463621204646
:10224000FDF7C6FFE36805461B7827E74B78313B6F
:10225000042B3FF63EAFDFE803F015031B19170010
:1022600002276369A269881C9342E06012DA03EBDB
:10227000430220699200013386186361C1D065B1C1
:102280000723BBE70127ECE70527EAE70427E8E790
:102290000327E6E78B78002500E78B78FEE600BF92
:1022A000E46F010870B5C3681A784A2A04460DD055
:1022B00071B90D462046FFF781FE78B103462A46E4
:1022C00020462921BDE87040FDF782BF0133C3607D
:1022D0002046FFF70DFA05460028EBD1002070BD1F
:1022E000C3681A78462A01D00020704710B55A1CDE
:1022F000C2605A78592A04BF0233C36001210446E0
:10230000FFF7D0FF01462046FEF714F8E3681A787D
:10231000452A01D0002010BD0133E36010BD00BF8D
:102320002DE9F047C3681A78472A05461FD0542A7A
:102330001DD00E46FFF720F8044610B32EB3AB684D
:10234000DB0722D42378A3F11C02042A40D94C2BAA
:102350003ED0022B16D1A3681A78A2F11C010429E1
:1023600040F283824C2A00F08082A3600AE0296B4D
:1023700001F114022A631A78542A2BD0472A00F05C
:102380009F8000242046BDE8F087EB681B78002B77
:10239000F8D0452BF6D021460A78202A00F2138186
:1023A0001C2A80F01281042A40F001814A686AB137
:1023B0001378082B03F1FF3100F2F680072B80F031
:1023C000F680012902D89268002AF1D10121EFE0BC
:1023D0006468B7E75A1CEA605A78002AD1D09A1C80
:1023E000EA605B78433B332BCBD801A252F823F051
:1023F0002B280008832300088323000815280008E1
:1024000083230008FF270008E9270008D3270008D6
:102410008323000883230008832300088323000804
:1024200083230008832300088323000883230008F4
:10243000BD270008A3270008832300088927000878
:1024400073270008832300088323000883230008E0
:1024500083230008832300088323000883230008C4
:1024600083230008832300088323000883230008B4
:102470003F270008832300088323000883230008E4
:1024800083230008192700088323000883230008FA
:102490008323000883230008832300088323000884
:1024A0008323000883230008832300088323000874
:1024B000832300088323000883230008F3260008F1
:1024C0005A1CEA605A78002A3FF45BAF9A1CEA6013
:1024D0005A78413A312A3FF654AF01A151F822F01F
:1024E000D5250008832300088323000883230008E0
:1024F0008323000883230008832300088323000824
:102500008323000883230008832300088323000813
:102510008323000883230008832300088323000803
:1025200083230008D526000883230008A926000875
:1025300083230008932600088323000883230008D0
:1025400083230008832300088323000883230008D3
:1025500083230008832300088323000883230008C3
:1025600083230008832300088323000883230008B3
:1025700083230008832300088323000883230008A3
:102580008323000883230008832300088323000893
:102590008323000883230008832300088323000883
:1025A00083230008ED250008342B7FF40FAF0021B2
:1025B0002846FFF777FE2246034603212846BDE85A
:1025C000F047FDF705BE4C2AF1D1496800297FF498
:1025D000E3AEEDE700212846FFF7A2FE0023024606
:1025E00017212846BDE8F047FDF7F2BD05F10C00C4
:1025F000FDF740FF01287FF7C4AEEB681A78002A88
:102600003FF4BFAE5F1CEF601B785F2B7FF4B9AE69
:102610000022461E90464FF040093B78002B3FF4C5
:10262000B0AE242B00F028813C46002104E014F8D1
:10263000013F23B1242B02D00131B142F7DB6C6999
:10264000A869844280F213812869631C04EB440466
:102650006B6110EB840300F00A8100F824805F6056
:102660009960EF680F44761AEF60002A00F021812C
:102670003F212846FDF7ACFD024600283FF481AE1D
:10268000002ECADC284600233E21BDE8F047FDF7B6
:102690009FBD2846FEF770FE002302461321284600
:1026A000BDE8F047FDF794BD9A7800212846002A3E
:1026B00000F00181DA1CEA609B786E2B40F0FB8011
:1026C000FFF72EFE0023024649212846BDE8F047C9
:1026D000FDF77EBD2846FEF74FFE04462846FDF76F
:1026E000F3FE2246034616212846BDE8F047FDF7D3
:1026F0006FBD76212846FEF771F800283FF441AE01
:1027000000212846FFF70CFE002302461021284630
:10271000BDE8F047FDF75CBD68212846FEF75EF88E
:1027200000283FF42EAE00212846FFF7F9FD0023D4
:1027300002460F212846BDE8F047FDF749BD0021BC
:102740002846FEF74BF800283FF41BAE0021284630
:10275000FEF744F800283FF414AE00212846FFF7A6
:10276000DFFD0023024611212846BDE8F047FDF7B2
:102770002FBD2846FEF700FE0023024615212846FD
:10278000BDE8F047FDF724BD0F3129632846FEF769
:10279000AFFF0023024609212846BDE8F047FDF7B8
:1027A00017BD0A3129632846FEF7A2FF002302461F
:1027B0000A212846BDE8F047FDF70ABD2846FEF786
:1027C00097FF002302460D212846BDE8F047FDF79C
:1027D000FFBC2846FEF78CFF002302461221284644
:1027E000BDE8F047FDF7F4BC2846FEF781FF002363
:1027F00002460C212846BDE8F047FDF7E9BC284613
:10280000FEF7BAFD0023024614212846BDE8F04732
:10281000FDF7DEBC2846FEF76BFF002302460E21C3
:102820002846BDE8F047FDF7D3BC2846FEF760FF19
:10283000044605F10C00FDF71DFE0028FFF6A1ADD2
:10284000EB681A785F2A7FF49CAD0133EB60284671
:10285000FEF74EFF2B6B591D29630246234628467F
:102860000B21BDE8F047FDF7B3BC5B6874E5EB688E
:102870000B44EB60002485E57B78532B27D05F2B3E
:1028800023D0242B7FF47DAD18466969AB6999424A
:102890001FDA2C694F1C01EB410114EB81036F61BE
:1028A00017D004F821905860EF680237023EEF60BD
:1028B000DBE61A46E4E6FFF733FD00230246482133
:1028C0002846BDE8F047FDF783BC2E20DDE72F202A
:1028D000DBE7EB680233EB60002453E5F8B5C26830
:1028E00013784C2B01D00020F8BD531CC3605178E5
:1028F0005F2905463AD05A293FD0FEF7F9FE002855
:10290000F1D00378272B46D0EE6833786E2B4BD06E
:102910003C21452B4ED0002BE5D0334601E0002C66
:10292000E1D00133EB601C78452CF8D19C1B6B691E
:10293000AA6993422DDA03EB43022F690133920017
:102940006B61BB1825D026B31CB34FF0000E07F8FF
:1029500002E05E609C6002462846FDF739FCEB68A9
:102960001A78452ABFD10133EB60F8BD931CC360D0
:1029700092785A2A18BF002007D10133EB6000215A
:102980002846FFF7CDFCEB681A78452AEBD00020EB
:10299000F8BD0023DFE743681A7C002AB4D05A68E8
:1029A0002B6B9B1A2B63AFE7721CEA6073783D2197
:1029B0001646AEE70024BAE72DE9F04F044695B07D
:1029C000002A00F0DB80D0F81871002F40F0C280A0
:1029D0001378884615464D2B01F2E681DFE813F0A7
:1029E0005A043C043C04A403A5048904EA048E03AD
:1029F0007C03300356030A03E4029802BE0272020B
:102A00004C02F0012602CA01A40158017E013201E4
:102A10000B01F200F200F200D400D400D400D40084
:102A2000D400D400D400D506D506D400D400A9061D
:102A3000FC0693061D070107880701077B057B0538
:102A400030060606E005E409AD058E0654064E0084
:102A500085044C09DF08DF08AE08AE088808480581
:102A60003A05E4081405BE0914099809E409CB07DE
:102A70006208F10717081304D4005205AB681B78ED
:102A8000382B7BD16A6853681B685978632902F038
:102A90004A8105F108034146204603F0BBFB064688
:102AA000002857D16B681A78312A02F06B835B6873
:102AB000C749186803F034FFAB6820B95A68117829
:102AC000032902F0A5835A684146204603F03EFBE5
:102AD0006F68C0497B68D3F80090484603F020FF38
:102AE0000646002842F06F82D4F80011FF2902F058
:102AF0004A844A1C5B23C4F80021635484F80431DF
:102B0000AB6841469A68204602F0FAFCD4F80011FE
:102B1000FF2902F025845D234A1CC4F80021635478
:102B200084F804316B681A78312A13D15B689A688B
:102B3000012A0FD15B681B783E2B0BD1D4F8001112
:102B4000FF2902F0828429234A1CC4F8002163541F
:102B500084F8043115B0BDE8F08FD4F82031002B93
:102B6000C1F2A484002B02F032848068013B10B1D2
:102B700002782F2AF6D00FB1C4F810610123C4F8EF
:102B8000183115B0BDE8F08FD4F814C1D4F8102175
:102B9000059514AB002143F840CD0691C4F81431DB
:102BA00007926A684146204602F0AAFC069B002B69
:102BB00001F08983049BC4F81431002FCAD0C4F8F3
:102BC0001061C7E7D0F814C1BCF1000FDED0624637
:102BD00005E08B4201F0B8861268002AD6D09068D2
:102BE0000028F9D151680978A1F1190EBEF1020F40
:102BF000EFD90746CAE7AF686D68002FAAD0D0F8B2
:102C000000112F444FF0000808E00B460131BD428F
:102C1000C4F80011E65484F804619BD0FF2915F82C
:102C2000016BF2D1D4F8083184F8FF80D4F80C217C
:102C300020469847D4F824310133C4F824310121C7
:102C40000023E4E7644ED0F8001106F1110A4FF0BA
:102C5000000909E00B4601315645C4F80011E7545C
:102C600084F8047101F09682FF2916F8017FF1D1F2
:102C7000D4F8083184F8FF90D4F80C212046984706
:102C8000D4F824310133C4F8243101210023E3E7CF
:102C9000524ED0F8001106F1190A4FF0000909E070
:102CA0000B4601315645C4F80011E75484F804710D
:102CB00001F0A882FF2916F8017FF1D1D4F808317C
:102CC00084F8FF90D4F80C2120469847D4F824319A
:102CD0000133C4F8243101210023E3E7404ED0F84A
:102CE000001106F1150A4FF0000909E00B46013109
:102CF0005645C4F80011E75484F8047101F051827C
:102D0000FF2916F8017FF1D1D4F8083184F8FF903B
:102D1000D4F80C2120469847D4F824310133C4F864
:102D2000243101210023E3E72E4ED0F8001106F1F3
:102D3000160A4FF0000909E00B4601315645C4F868
:102D40000011E75484F8047101F06382FF2916F83A
:102D5000017FF1D1D4F8083184F8FF90D4F80C2128
:102D600020469847D4F824310133C4F82431012196
:102D70000023E3E71C4ED0F8001106F1130A4FF0D0
:102D8000000909E00B460131B245C4F80011E754CF
:102D900084F8047101F07780FF2916F8017FF1D1E2
:102DA000D4F8083184F8FF90D4F80C2120469847D5
:102DB000D4F824310133C4F8243101210023E3E79E
:102DC0000A4ED0F8001106F11A0A4FF0000919E076
:102DD000A86F0108A471010833710108FF70010890
:102DE0001B710108E7700108D3700108A770010882
:102DF0000B4601315645C4F80011E75484F80471BC
:102E000001F04F80FF2916F8017FF1D1D4F8083185
:102E100084F8FF90D4F80C2120469847D4F8243148
:102E20000133C4F8243101210023E3E7B54ED0F883
:102E3000001106F10F0A4FF0000909E00B460131BD
:102E40005645C4F80011E75484F8047101F022805B
:102E5000FF2916F8017FF1D1D4F8083184F8FF90EA
:102E6000D4F80C2120469847D4F824310133C4F813
:102E7000243101210023E3E7A34ED0F8001106F12D
:102E8000110A4FF0000909E00B4601315645C4F81C
:102E90000011E75484F8047101F00A80FF2916F844
:102EA000017FF1D1D4F8083184F8FF90D4F80C21D7
:102EB00020469847D4F824310133C4F82431012145
:102EC0000023E3E7914ED0F8001106F1150A4FF008
:102ED000000909E00B4601315645C4F80011E754DA
:102EE00084F8047100F0B387FF2916F8017FF1D14F
:102EF000D4F8083184F8FF90D4F80C212046984784
:102F0000D4F824310133C4F8243101210023E3E74C
:102F10007F4ED0F8001106F1120A4FF0000909E0C7
:102F20000B460131B245C4F80011E75484F804712E
:102F300000F09B87FF2916F8017FF1D1D4F8083102
:102F400084F8FF90D4F80C2120469847D4F8243117
:102F50000133C4F8243101210023E3E76D4ED0F89A
:102F6000001106F1100A4FF0000909E00B4601318B
:102F70005645C4F80011E75484F8047100F06E87D8
:102F8000FF2916F8017FF1D1D4F8083184F8FF90B9
:102F9000D4F80C2120469847D4F824310133C4F8E2
:102FA000243101210023E3E75B4ED0F8001106F144
:102FB0000D0A4FF0000909E00B4601315645C4F8EF
:102FC0000011E75484F8047100F05687FF2916F8C1
:102FD000017BF1D1D4F8083184F8FF90D4F80C21AA
:102FE00020469847D4F824310133C4F82431012114
:102FF0000023E3E7494ED0F8001106F1180A4FF01C
:10300000000909E00B460131B245C4F80011E7544C
:1030100084F8047100F0E386FF2916F8017FF1D1EE
:10302000D4F8083184F8FF90D4F80C212046984752
:10303000D4F824310133C4F8243101210023E3E71B
:10304000374ED0F8001106F10B0A4FF0000909E0E5
:103050000B460131B245C4F80011E75484F80471FD
:1030600000F0CA87FF2916F8017BF1D1D4F80831A6
:1030700084F8FF90D4F80C2120469847D4F82431E6
:103080000133C4F8243101210023E3E7254ED0F8B1
:10309000001106F1080A4FF0000909E00B46013162
:1030A000B245C4F80011E75484F8047100F0C886F2
:1030B000FF2916F8017FF1D1D4F8083184F8FF9088
:1030C000D4F80C2120469847D4F824310133C4F8B1
:1030D000243101210023E3E7D0F80011FF2901F09A
:1030E0007C844A1C7E23C4F80021635484F8043194
:1030F0004146AA68204602F003FA2BE5AA6802F0CE
:10310000FFF927E5C3700108937001088F7001086B
:10311000677001087B70010858700108337001085E
:103120001C700108277001080022D0F81431C0F883
:1031300014216E680093002E00F04C860DF11009EA
:10314000D0F810C1174696464B4631781A60A1F167
:103150001C02042A5E60C3F808E0C3F80CC007F143
:10316000010718461A4640F22A864C2900F02786A5
:103170000429C4F8143101F0BB8702291AD1D6F80A
:1031800008B09BF80030462B02F035802B4609EB47
:10319000071E01965D467646A2469B462B78A3F114
:1031A0001C02042A41F25D804C2B01F05A80019EE2
:1031B00054465D46AA684146204602F0A1F933789C
:1031C000042B02F0208009EB0719202659F8085C2F
:1031D000013F85B9D4F80011FF2902F043804B1C50
:1031E000C4F8003159F80C2C66542046414684F846
:1031F000046102F095F9A9F11009002FE6D1009BB6
:10320000C4F81431A6E4D14E6A6802F079F906F1E7
:10321000050AD4F800114FF0000909E00B4601310E
:10322000B245C4F80011E75484F8047100F0D18667
:10323000FF2916F8017BF1D1D4F8083184F8FF900A
:10324000D4F80C2120469847D4F824310133C4F82F
:10325000243101210023E3E76A6802F051F918F0F4
:10326000040901F0AA82D4F80011FF2901F09A851F
:103270004A1C2E23C4F80021635484F80431AD683D
:103280002B78462B01F0CC832A464146204602F09B
:1032900037F95FE411F0040841F08B80AF686D6886
:1032A000002F3FF457ACD0F800112F4409E00B4633
:1032B0000131BD42C4F80011E65484F804613FF4C2
:1032C00049ACFF2915F8016BF1D1D4F8083184F825
:1032D000FF80D4F80C2120469847D4F824310133DC
:1032E000C4F8243101210023E3E70123C0F8183199
:1032F00030E4D0F81C31002B41F00681291DFDF788
:1033000097FA00283FF43AAC03782F2B01F0FC83A6
:10331000D4F810512B68C4F81031024641462046BB
:1033200002F0EEF8C4F8105114E40023D0F8149120
:10333000D0F84471C0F81431C0F8445111F0040FB2
:103340006E6805D033781BB9B268062A01F03C8557
:1033500032464146204602F0D3F894F804313C2B23
:1033600001F07482D4F80031FF2B01F08984591CDC
:103370003C22C4F80011E25484F804214146AA68B2
:10338000204602F0BDF894F804313E2B01F039825A
:10339000D4F80031FF2B01F06084591C3E22C4F8A0
:1033A0000011E25484F80421C4F81491C4F8447163
:1033B000FFF7D0BB6F68002F01F08280644DD0F81A
:1033C000001105F106094FF0000809E00B46013134
:1033D000A945C4F80011E65484F8046100F082871E
:1033E000FF2915F8016BF1D1D4F8083184F8FF807A
:1033F000D4F80C2120469847D4F824310133C4F87E
:10340000243101210023E3E7524ED0F8001106F1E8
:103410000A0A4FF0000909E00B4601315645C4F88D
:103420000011E75484F8047100F00187FF2916F8B1
:10343000017BF1D1D4F8083184F8FF90D4F80C2145
:1034400020469847D4F824310133C4F824310121AF
:103450000023E3E7D0F800112D79FF2901F0AB82BA
:103460004B1CC4F80031655484F80451FFF772BB5B
:103470006A6802F045F8AA684146204602F040F822
:10348000FFF768BB344E6A6802F03AF806F1080AA2
:10349000D4F800114FF0000909E00B460131564500
:1034A000C4F80011E75484F8047100F00885FF297E
:1034B00016F8017FF1D1D4F8083184F8FF90D4F8E0
:1034C0000C2120469847D4F824310133C4F8243124
:1034D00001210023E3E76A680AB102F011F8AB6842
:1034E000002B3FF437ABD4F80061FD2E01F2BC8114
:1034F0001A4F4FF0000A07F1020B314609E00B4664
:1035000001315F45C4F80011E65484F8046100F00D
:10351000C186FF2917F8016BF1D1D4F8083184F87E
:10352000FFA0D4F80C2120469847D4F82431013369
:10353000C4F8243101210023E3E7094ED0F800113B
:1035400006F1090A4FF0000916E000BFE86F010814
:10355000F8710108E07101085F7201087C710108CF
:103560008B7101080B4601315645C4F80011E75430
:1035700084F8047100F09485FF2916F8017FF1D1D9
:10358000D4F8083184F8FF90D4F80C2120469847ED
:10359000D4F824310133C4F8243101210023E3E7B6
:1035A000D14ED0F8001106F1090A4FF0000909E0E8
:1035B0000B4601315645C4F80011E75484F80471F4
:1035C00000F09785FF2916F8017FF1D1D4F8083172
:1035D00084F8FF90D4F80C2120469847D4F8243181
:1035E0000133C4F8243101210023E3E7D5F804A016
:1035F000BE4DDAF80870D0F8001105F108084FF058
:10360000000909E00B460131A845C4F80011E65451
:1036100084F8046100F00685FF2915F8016FF1D1E7
:10362000D4F8083184F8FF90D4F80C21204698474C
:10363000D4F824310133C4F8243101210023E3E715
:103640006A68AE680AB101F05BFFD4F80031FF2B65
:1036500001F0B1825A1C7B25C4F800214146E55493
:103660003246204684F8045101F04AFFD4F8001194
:10367000FF2901F0E7814A1C7D23C4F8002163542F
:1036800084F80431FFF766BAD5F80490AE6899F86B
:103690000030312B00F0CB87332B41F0D386D0F8AC
:1036A0000011FF2901F0C3844A1C2823C4F800211B
:1036B000635484F8043104A9D9F80420D4F82831DB
:1036C000C4F828112046414605930492FFF774F987
:1036D000D4F80011059BC4F82831FF2901F0968425
:1036E00029234A1CC4F80021635484F8043132466B
:1036F0004146204602F02AFDFFF72CBA6A6802F024
:10370000E7FCFFF727BA11F0200F40F053876A68F3
:103710001AB118F0400301F0D08128F0600805F1DB
:1037200008024146D4F81431204602F0DDFBFFF7D1
:1037300011BA11F004086B6840F0128693E8A000FB
:10374000002F3FF407AAD0F800112F4409E00B46E0
:103750000131BD42C4F80011E65484F804613FF41D
:10376000F9A9FF2915F8016BF1D1D4F8083184F8D3
:10377000FF80D4F80C2120469847D4F82431013337
:10378000C4F8243101210023E3E76968D0F81C71F3
:103790000B78002F40F0E185052B01F0C781232B2A
:1037A00000F089862A789A4200F08586242B7FF4DF
:1037B000EBA914A8D4F814314A6840F8403D002120
:1037C000D4F810310595C4F8140106910793002A26
:1037D0007FF4E8A9FFF7E5B96A6801F091FEFFF709
:1037E000B9B914ABD0F8142143F8402DC0F8143106
:1037F000AA68D0F81031079300260595069601F0C7
:103800007FFE069B23B92A464146204601F088FEEA
:10381000049BC4F81431FFF79DB90DF15009D0F89D
:1038200014B149F840BD0022D0F81031CDF800B0F5
:103830005946C0F81491059506920793002901F0A6
:10384000A0834B681B78193B022B01F29A83AC468C
:1038500001270E464D4604E073681B78193B022B86
:103860001BD8B3684FEA071E14AA02EB0E0B8BB9E4
:10387000032F01F2F98096E80F00ABF1400A8AE8C5
:103880000F004BF8405C012309EB0E05C4F81451FE
:103890000137B3603668002EDED1DCF808204146DF
:1038A0002046654601F02CFE069B009AC4F81421C0
:1038B000002B7FF44FA9012F0CD009EB071959F801
:1038C0000C2C013F4146204601F02AFE012FA9F1B0
:1038D0001009F4D12A1D4146D4F81431204602F0D3
:1038E00027FAFFF737B900BF8B7101087F71010814
:1038F000B5F90A30002B40F074866A68D54B5168E0
:10390000994200F06A864146204601F0F9FDD4F85C
:103910000031FF2B01F0B282591C2022C4F80011A3
:10392000E25484F80421B5F90830002B00F09585A5
:10393000C94D4FF00008AF1D09E00B460131BD42F3
:10394000C4F80011E65484F804613FF403A9FF2988
:1039500015F8016BF1D1D4F8083184F8FF80D4F860
:103960000C2120469847D4F824310133C4F824317F
:1039700001210023E3E7B94ED0F8001106F10E094A
:103980004FF0000809E00B460131B145C4F80011C1
:10399000E75484F8047100F0B383FF2916F8017F1F
:1039A000F1D1D4F8083184F8FF80D4F80C212046F6
:1039B0009847D4F824310133C4F82431012100237D
:1039C000E3E7A74ED0F8001106F11A0A4FF00009FC
:1039D00009E00B4601315645C4F80011E75484F85C
:1039E000047100F0EF82FF2916F8017FF1D1D4F8BD
:1039F000083184F8FF90D4F80C2120469847D4F879
:103A000024310133C4F8243101210023E3E769683C
:103A1000FCF72AFF4FF00009002801F05D830378CE
:103A20002F2B40F057844368002B00F053848068AC
:103A300009F101090028F2D16B68009309F1FF3305
:103A400001934FF0000AC4F82071009A41462046C5
:103A500001F056FD019BBB4240F3AB81814DD4F890
:103A6000001105F1020B09E00B460131AB45C4F82A
:103A70000011E65484F8046100F09B81FF2915F8D9
:103A8000016BF1D1D4F8083184F8FFA0D4F80C21EF
:103A900020469847D4F824310133C4F82431012159
:103AA0000023E3E7704ED0F8001106F1160A4FF03C
:103AB000000909E00B460131B245C4F80011E75492
:103AC00084F8047100F05F83FF2916F8017FF1D1BB
:103AD000D4F8083184F8FF90D4F80C212046984798
:103AE000D4F824310133C4F8243101210023E3E761
:103AF0005E4ED0F8001106F10E0A4FF0000909E001
:103B00000B4601315645C4F80011E75484F804719E
:103B100000F0A083FF2916F8017FF1D1D4F8083115
:103B200084F8FF90D4F80C2120469847D4F824312B
:103B30000133C4F8243101210023E3E76A681178D6
:103B4000272900F015860026D4F80011FF2901F07E
:103B5000C58028234A1CC4F80021635484F804312A
:103B60006A684146204601F0CBFCD4F80031FF2BB7
:103B700001F09980591C2922C4F80011E25484F8FC
:103B800004212B783D2B00F0E686082E00F07F867E
:103B9000AA684146204601F0B3FCFEF7DBBF0123D3
:103BA000C0F81831FEF7D6BF6A68314904A80EF094
:103BB0001DFB04A802F0BEFE00283EF4CBAF04AD0E
:103BC000D4F800112F184FF0000809E00B4601311E
:103BD000BD42C4F80011E65484F804613EF4BAAF63
:103BE000FF2915F8016BF1D1D4F8083184F8FF8072
:103BF000D4F80C2120469847D4F824310133C4F876
:103C0000243101210023E3E71A4ED0F8001106F118
:103C10001C0A4FF0000909E00B4601315645C4F873
:103C20000011E75484F8047100F0FA82FF2916F8B5
:103C3000017FF1D1D4F8083184F8FF90D4F80C2139
:103C400020469847D4F824310133C4F824310121A7
:103C50000023E3E7C06301086C7101084F7201089B
:103C6000477101087C7101084B710108CF7101088F
:103C7000A06F01081F720108AB681A783A2A7EF417
:103C80007DAF9B681B783B2B7EF478AF05F1080372
:103C90006A6802F0BFFA064600287EF45BAFD5F8EA
:103CA00004A0AA68DAF8041093680868D649D2F824
:103CB00004905F689D6802F033FE002801F0E28204
:103CC0000422D2492046FCF7A3FBD9F8043083B183
:103CD00041464A46204602F039FAD4F80011FF293D
:103CE00001F0EC8320234A1CC4F80021635484F8BB
:103CF00004313A464146204601F002FC002D3EF4D4
:103D000029AF2A464146204602F020FAFEF722BF9C
:103D1000BF4ED0F8001106F1080A4FF0000909E083
:103D20000B4601315645C4F80011E75484F804717C
:103D300000F0D880FF2916F8017FF1D1D4F80831BE
:103D400084F8FF90D4F80C2120469847D4F8243109
:103D50000133C4F8243101210023E3E7AD4ED0F84C
:103D6000001106F11D0A4FF0000909E00B46013170
:103D7000B245C4F80011E75484F8047100F0FC81E6
:103D8000FF2916F8017FF1D1D4F8083184F8FF90AB
:103D9000D4F80C2120469847D4F824310133C4F8D4
:103DA000243101210023E3E70123C0F81831FEF795
:103DB000D1BE01374F457FF446AEFEF7CBBE7668E5
:103DC000002E01F06E80042F03F110037FF4BDA9D3
:103DD000C4F814010123C4F81831FEF7BBBE8E4E9F
:103DE0006A684146204601F08BFB06F1040AD4F8CC
:103DF00000114FF0000908E00B460131B245C4F84C
:103E00000011E75484F8047113D0FF2916F8017BE0
:103E1000F2D1D4F8083184F8FF90D4F80C21204670
:103E20009847D4F824310133C4F824310121002308
:103E3000E4E7AA684146204601F062FBFEF78ABE2D
:103E40006A684146204601F05BFBFEF783BE6A6864
:103E50004146204601F054FBFEF77CBE6A684146AD
:103E6000204601F04DFBFEF775BE6A6841462046CC
:103E700001F046FBFEF76EBE6A684146204601F03F
:103E80003FFBFEF767BE6A684146204601F038FBFB
:103E9000FEF760BE6A684146204601F031FBFEF73E
:103EA00059BE6A684146204601F02AFBFEF752BE21
:103EB0006A684146204601F023FBFEF74BBE4146AF
:103EC000AA68204601F01CFBD4F80011FF2900F07D
:103ED00060854A1C5D23C4F80021635484F80431D2
:103EE000FEF738BED4F81C314C4E0133C4F81C31F7
:103EF00041466A68204601F003FBD4F81C31D4F82F
:103F00000011013BC4F81C3106F102094FF0000812
:103F100008E00B4601314E45C4F80011E75484F81F
:103F2000047113D0FF2916F8017BF2D1D4F80831BF
:103F300084F8FF80D4F80C2120469847D4F8243127
:103F40000133C4F8243101210023E4E7AA6834498D
:103F5000013204A80EF04AF904A802F0EBFC18B3F1
:103F600004ADD4F800112F184FF0000808E00B46FC
:103F70000131AF42C4F80011E65484F8046115D051
:103F8000FF2915F8016BF2D1D4F8083184F8FF80CD
:103F9000D4F80C2120469847D4F824310133C4F8D2
:103FA000243101210023E4E7D4F80011FF2900F0B7
:103FB00060854A1C7D23C4F80021635484F80431D1
:103FC000FEF7C8BD6A684146204601F099FAFEF73F
:103FD000C1BD4146AA68204601F092FAD4F800110A
:103FE000FF2900F00B854A1C5D23C4F800216354AF
:103FF00084F80431FEF7AEBD6A684146204601F000
:104000007FFAFEF7A7BD00BFB46F0108AC710108CD
:104010003F720108FF710108507001084C720108DD
:10402000A06F0108DAF804502B78613B192B09D8EE
:10403000FF2900F0938720234A1CC4F80021635411
:1040400084F80431EB1913F8013C202B08BF07F169
:10405000FF37002F3EF47EADD4F800112F444FF00F
:10406000000809E00B460131AF42C4F80011E654E4
:1040700084F804613EF46EADFF2915F8016BF1D1AF
:10408000D4F8083184F8FF80D4F80C2120469847F2
:10409000D4F824310133C4F8243101210023E3E7AB
:1040A000D4F844213AB114ABD4F8101143F8481DA8
:1040B0000392C4F810316B681A78042A00F00E835A
:1040C00004A81A46D4F82851C4F8280141462046CD
:1040D00004930595FEF770FCD4F84431059AC4F8B2
:1040E0002821002B3EF436AD029BC4F81031FEF7B8
:1040F00031BDAA684146204601F002FAFEF72ABD0A
:104100006A68D849013204A80EF070F804A802F0D9
:1041100011FC18B304ADD4F800112F184FF00008AB
:1041200008E00B460131BD42C4F80011E65484F8A2
:10413000046115D0FF2915F8016BF2D1D4F80831CC
:1041400084F8FF80D4F80C2120469847D4F8243115
:104150000133C4F8243101210023E4E7D4F800112D
:10416000FF2900F004844A1C7D23C4F80021635415
:1041700084F80431FEF7EEBC6A684146204601F03F
:10418000BFF9FEF7E7BC6A684146204601F0B8F97E
:10419000FEF7E0BC6A684146204601F0B1F9FEF73F
:1041A000D9BCB14EAA684146204601F0A9F906F1F2
:1041B000050AD4F800114FF0000908E00B46013160
:1041C0005645C4F80011E75484F8047113D0FF2950
:1041D00016F8017BF2D1D4F8083184F8FF90D4F8B6
:1041E0000C2120469847D4F824310133C4F82431F7
:1041F00001210023E4E76A684146204601F080F986
:10420000FEF7A8BC6A684146204601F079F9FEF73E
:10421000A1BC6A684146204601F072F9FEF79ABCDB
:104220006A684146204601F06BF9FEF793BC4146AF
:104230006A68204601F064F9D4F80011FF2900F003
:104240002A844A1C2923C4F80021635484F80431C9
:10425000FEF780BC6A684146204601F051F9FEF73E
:1042600079BC042FA6F1100406F1100E00F022878D
:1042700094E80F0086E80F0000234EF8104C06E982
:104280000810CAF8146146F80C5C6D680137764670
:10429000FEF784BFAA6800930E4620464146D4F834
:1042A000245101F02DF9D4F82421009B95427EF48D
:1042B00051ACD4F80021B2427EF44CAC013BC4F8BE
:1042C0000031FEF747BC2A464146204601F028F956
:1042D000FEF770BC6B680093B9F1000F7FF4AEABD2
:1042E000FEF738BC3A4604A85E490DF07FFF04A8EB
:1042F00002F020FB18B304ADD4F800112F184FF0D2
:10430000000808E00B460131AF42C4F80011E65442
:1043100084F8046115D0FF2915F8016BF2D1D4F8A7
:10432000083184F8FF80D4F80C2120469847D4F84F
:1043300024310133C4F8243101210023E4E7D4F807
:104340000011FF2900F0DD844A1C7D23C4F8002100
:10435000635484F80431FEF7FDBB0027FFF71FBA52
:10436000DF689D68002F3EF4F5ABD0F800112F44B4
:104370004FF0000809E00B460131BD42C4F80011BE
:10438000E65484F804613EF4E5ABFF2915F8016BAF
:10439000F1D1D4F8083184F8FF80D4F80C212046FC
:1043A0009847D4F824310133C4F824310121002383
:1043B000E3E76E68AF683744BE42BEF4CBAB4FF064
:1043C00000080DE0D4F80011FF2936D04B1CC4F8CA
:1043D0000031655484F804510136B7427EF6BAAB19
:1043E000BB1B032B3578EDDD5F2DEBD173785F2B95
:1043F000E8D1B378552BE5D1F31C9F42E2D90020D8
:1044000006E0A5F137029F4202EB001000F0C785DD
:10441000994613F8015BA5F13002D1B20929A5F143
:10442000410EF0D9BEF1050FA5F16102E9D9052AC7
:1044300000F24387A5F15702E5E7D4F8083184F884
:10444000FF80D4F80C2120469847D4F8243101335A
:10445000C4F8243100210123B9E7044D9846AF1D6B
:1044600010E000BFA06F0108147101087471010809
:104470000B460131BD42C4F80011E65484F80461D2
:104480003EF468ABFF2915F8016BF1D1D4F808317F
:1044900084F8FF80D4F80C2120469847D4F82431C2
:1044A0000133C4F8243101210023E3E72B782F2BBB
:1044B0007EF46AAB01460D46D4F814C1FEF766BB24
:1044C000D74DD0F8001105F1040809E00B46013181
:1044D000A845C4F80011E65484F804613EF43AABF0
:1044E000FF2915F8016BF1D1D4F8083184F8FF7079
:1044F000D4F80C2120469847D4F824310133C4F86D
:10450000243101210023E3E7C64ED0F8001106F163
:1045100005094FF0000808E00B460131B145C4F829
:104520000011E75484F8047113D0FF2916F8017BB9
:10453000F2D1D4F8083184F8FF80D4F80C21204659
:104540009847D4F824310133C4F8243101210023E1
:10455000E4E76A68B449013204A80DF047FE04A8F4
:1045600002F0E8F900283EF4F5AA04ADD4F80011F1
:104570002F184FF0000809E00B460131AF42C4F894
:104580000011E65484F804613EF4E4AAFF2915F80A
:10459000016BF1D1D4F8083184F8FF80D4F80C21F4
:1045A00020469847D4F824310133C4F8243101213E
:1045B0000023E3E721F0600805F108024146D0F846
:1045C000143101F091FC6A68002A3EF4C3AA414606
:1045D000204600F095FFFEF7BDBAD4F80011FFF7B2
:1045E000A2B9924ED0F8001106F1050A4FF0000969
:1045F00009E00B460131B245C4F80011E75484F8D4
:1046000004713FF47AA9FF2916F8017BF1D1D4F89F
:10461000083184F8FF90D4F80C2120469847D4F84C
:1046200024310133C4F8243101210023E3E7D9F810
:1046300004307F491F68384602F072F996F800A0EE
:1046400018B9BAF1030F00F01B85BAF1380F00F06A
:10465000FD857849384602F063F90546002800F0E8
:1046600035817549384602F05BF9002800F0B682C2
:104670004A464146204601F02BFD002F3FF437A863
:104680006E49384602F04CF9002800F08483384621
:104690006B4902F045F9054600287FF428A8D4F8B4
:1046A0000031FF2B00F0DB84581C2825C4F80001E2
:1046B0004146E5543246204684F8045100F020FF7C
:1046C000D4F80011FF2900F06D8429234A1CC4F896
:1046D0000021635484F80431FEF73CBA0DF110094F
:1046E0005A68D4F82831C4F82891414620460492EB
:1046F0000593FEF761F9D4F84431059AC4F82821EE
:1047000013B1029BC4F8103194F804313C2B00F033
:10471000D983D4F80011FF2900F067844A1C3C2398
:10472000C4F80021635484F804316B68D4F828512C
:104730009B68C4F828911A46414620460493059583
:10474000FEF73AF994F80431059AC4F828213E2B73
:1047500000F0AB83D4F80011FF2900F09A843E23C7
:104760004A1CC4F80021635484F80431FEF7F2B9FE
:104770005268167C002E3FF4E7A9062E40F23783DC
:10478000072E7FF4E1A9AA68117800297FF4DCA93B
:10479000916801297FF4D8A93C2B7FF4D5A95368EF
:1047A0001B78302B00F02686312B7FF4CDA9042214
:1047B0002449FBF72DFEFEF7CDB9234ED4F80011A6
:1047C00006F1020A09E00B460131B245C4F80011B6
:1047D000E75484F804713EF452ADFF2916F8017BCA
:1047E000F1D1D4F8083184F8FF90D4F80C21204698
:1047F0009847D4F824310133C4F82431012100232F
:10480000E3E7D4F80011FF2900F0E48420224B1CD8
:10481000C4F80031625484F80421FEF7BBBD00BF28
:10482000F071010814700108A06F0108647101089B
:10483000987101086C720108A46F01089C7101084D
:10484000AC740108C8710108F06F0108D4F80011B8
:10485000FF2900F0658420224B1CC4F8003162540B
:1048600084F80421FEF780BD0027A7553146D4F80F
:104870000831D4F80C2120469847D4F82431C4F8E4
:10488000007101333E46C4F82431FEF731BED4F83E
:104890000011FF2900F065844A1C5B23C4F8002145
:1048A000635484F804314146AA68204600F028FE8B
:1048B000D4F80011FF2900F012835D234A1CC4F8CC
:1048C0000021635484F80431FEF744B93146204690
:1048D000FBF7CAFF28B907E043682BB180680135B0
:1048E00010B103782F2BF7D02A4604A8D4490DF035
:1048F0007DFC04A802F01EF800283EF42BA904ADAC
:10490000D4F800112F184FF0000809E00B460131D0
:10491000BD42C4F80011E65484F804613EF41AA9BB
:10492000FF2915F8016BF1D1D4F8083184F8FF8024
:10493000D4F80C2120469847D4F824310133C4F828
:10494000243101210023E3E76A684146204600F054
:10495000D7FDFEF7FFB8FF2900F0D2832D234A1CB4
:10496000C4F80021635484F80431FFF70EB9002520
:10497000D4F80831D4F80C2184F8FF502046984729
:10498000D4F8243101332946C4F824310122FFF739
:10499000EBBB0025D4F80831D4F80C2184F8FF5083
:1049A00020469847D4F8243101332946C4F82431ED
:1049B0000122FFF78FBA0026D0F8083180F8FF6097
:1049C000D0F80C219847D4F82431C4F800610133A1
:1049D0003146C4F82431FEF743BD0026D0F8083133
:1049E000D0F80C2180F8FF609847D4F824310133C7
:1049F0003146C4F824310122FEF774BB0025D4F8F7
:104A00000831D4F80C2184F8FF5020469847D4F898
:104A1000243101332946C4F824310122FFF7E4BAD6
:104A20000D2288492046FBF7F3FCA9682046013196
:104A3000FBF79EFF032284492046FBF7E9FC6D68E3
:104A4000FEF722BC0025D4F80831D4F80C2184F8F4
:104A5000FF5020469847D4F8243101332946C4F842
:104A600024310122FEF708BE0123C4F81831FEF7F5
:104A700071B80025D4F80831D4F80C2184F8FF501F
:104A800020469847D4F8243101332946C4F824310C
:104A90000122FFF78FBA0025D4F80831D4F80C2191
:104AA00084F8FF5020469847D4F824310133294632
:104AB000C4F824310122FFF7C5BB14A9D4F81401AE
:104AC00041F8400D28F06008D4F81061C4F81411C2
:104AD0002046414606930796059500F011FD069E77
:104AE000049BC4F81431002E7EF434A8D4F80011CD
:104AF000FF2900F0098420234A1CC4F800216354D4
:104B000084F80431FEF70BBED4F82031002BFEF6FA
:104B1000FFAB002B00F09D828068013B00283EF433
:104B20002DA802782F2AF4D0FEF728B8D0F830E16B
:104B3000D0F82C21BEF1000F14DD1368994200F06B
:104B4000F58302F108003B46A44604E052F83340E6
:104B5000A14200F0D48101339E45814600F1080056
:104B6000F4D16446D4F834319E4580F2B9840EF114
:104B7000010302EBCE00C4F8303142F83E10D4F805
:104B8000102104308E46002A00F08D84D4F83C3188
:104B9000D4F840118B4203F1010C80F2A184D4F8C7
:104BA0003811C4F83CC101EBC3035168596003607C
:104BB00012681846E7E700251946D4F80C21D4F806
:104BC000083184F8FF5020469847D4F824315A1C05
:104BD000C4F824212B460122FEF73DBD002E00F033
:104BE0004D84BAF12F0F40F08884736873B3074681
:104BF00007E00137B66856B333782F2B27D1736897
:104C00002BB31A784A2AF4D159682046FBF72CFEB8
:104C100098B103782F2B40F06C844368002B00F090
:104C200064840346002004E01A782F2A05D15A68CC
:104C30001AB19B680130002BF6D10744DAE700BFB8
:104C4000A06F0108F46F0108047001081F4639467F
:104C50002046FBF78DFEFDF77DBF00251946D4F8F1
:104C60000C21D4F8083184F8FF5020469847D4F836
:104C700024315A1CC4F824212B460121FEF78EBB97
:104C800000261946D4F80C21D4F8083184F8FF60C6
:104C900020469847D4F824315A1CC4F824213346BE
:104CA0000121FEF765BB0022194684F8FF20D4F8E5
:104CB0000831D4F80C21204698472923237084F822
:104CC00004312A78D4F82431012101333D2AC4F873
:104CD0002431C4F800117EF458AF3FE60027D4F821
:104CE000083184F8FF70D4F80C2120469847D4F896
:104CF0002431C4F8007101333946C4F82431FEF779
:104D000028BF0025D4F80831D4F80C2184F8FF50CE
:104D100020469847D4F8243101332946C4F8243179
:104D20000122FFF712BB1B78A3F16301012903D90C
:104D3000723B012B3DF6ADAE4146204601F0C8F96D
:104D4000D4F80011FF2900F071824A1C3C23C4F8FA
:104D50000021635484F80431AB6841465A68204608
:104D600000F0CEFB0222D5492046FBF751FBAB6891
:104D700041469A68204600F0C3FBD4F80011FF2991
:104D800000F0DF8129234A1CC4F80021635484F811
:104D90000431FDF7DFBE32464146204600F0B0FB4D
:104DA000FDF7D8BE0026D4F80831D4F80C2184F8D9
:104DB000FF6020469847D4F8243101333146C4F8C7
:104DC00024310122FEF755BABD4970680DF066FC2A
:104DD00000287EF4BDAAAA684146204600F090FB58
:104DE0000222B8492046FBF713FBFEF7DDBAAA689A
:104DF0001778002F7EF4A8AE3D2B00F0EF82AA6852
:104E000041462046023E00F07BFB042E3DF6A2AE5A
:104E1000DFE806F02618110A030020460322AA49FB
:104E2000FBF7F6FAFDF796BE20460222A749FBF7EC
:104E3000EFFAFDF78FBE20460222A549FBF7E8FAFC
:104E4000FDF788BED4F80011FF2900F01A836C2307
:104E50004A1CC4F80021635484F80431FDF77ABE7B
:104E6000D4F80011FF2900F0DB8275234A1CC4F836
:104E70000021635484F80431FDF76CBE0026194606
:104E8000D4F80C21D4F8083184F8FF602046984704
:104E9000D4F824315A1CC4F8242133460121FEF7EA
:104EA0003CBDC4F81431FEF795BFD4F80011FF29BA
:104EB00000F0448220234A1CC4F80021635484F883
:104EC000043147E4D4F80011FF2900F06E8220235A
:104ED0004A1CC4F80021635484F8043119E4002505
:104EE000D4F8083184F8FF50D4F80C2120469847B4
:104EF000D4F8243101332946C4F82431DDE4644672
:104F0000D4F82801D8B1026891420AD0034604E0DF
:104F10005B68A3B11A68914203D09542F8D19842D8
:104F2000F6D004312046FBF783FC00283DF426AE82
:104F300003782F2B3DF411AE0146FEF730BCD9F8B3
:104F40000430D4F81061C4F8103104312046FBF766
:104F50006FFC00283DF410AE0127E9E70026D4F8E5
:104F6000083184F8FF60D4F80C2120469847D4F823
:104F70002431DAF8045001333146C4F82431FFF704
:104F80005AB8AA684146204600F0BAFA069B009A31
:104F9000C4F81421002B3EF49DACFDF7DBBD5F256A
:104FA000FFF710BA0025D4F8083184F8FF50D4F880
:104FB0000C2120469847D4F8243101332946C4F8FF
:104FC0002431FFF782BB4846424901F0A9FC20B1D9
:104FD0003A464146204601F07BF8AB6841469A6864
:104FE000204601F0B3F8FDF79DBD0026D4F8083146
:104FF00084F8FF60D4F80C2120469847D4F8243177
:1050000001333146C4F82431FFF788BB0025D4F8BA
:10501000083184F8FF50D4F80C2120469847D4F882
:10502000243101332946C4F82431FEF759BB002549
:10503000D0F8083180F8FF50D0F80C219847D4F808
:105040002431C4F8005101332946C4F82431FEF755
:105050002BBB406800283DF491ADFEF759B984F8A8
:10506000FF001946D4F80C21D4F80831204698479F
:10507000D4F824315A1CC4F824212B46FFF714BB62
:1050800073681A78012A00F0538196F800A0FFF7A0
:10509000E0BA0025D4F8083184F8FF50D4F80C2188
:1050A00020469847D4F8243101332946C4F82431E6
:1050B000FFF755BB5446FEF78DBE00BFA071010837
:1050C0000870010810700108BC710108B87101086E
:1050D000B4710108A86F01086A684146204601F0D2
:1050E00035F820460322E249FBF792F9FDF732BD7D
:1050F00014AB039643F848CDC4F81031FEF75AB804
:105100000027D4F8083184F8FF70D4F80C21204629
:105110009847D4F8243101333946C4F824311DE4CA
:105120000026D4F8083184F8FF60D4F80C2120461A
:105130009847D4F8243101333146C4F82431FFF7BD
:105140008ABB0025D4F8083184F8FF50D4F80C212C
:1051500020469847D4F8243101332946C4F8243135
:1051600010E60026D4F8083184F8FF60D4F80C214A
:1051700020469847D4F8243101333146C4F824310D
:10518000FFF78ABB5A68916801297DF490AC526898
:1051900012783E2A7DF48BACD4F80011FF290FD190
:1051A000D4F8083184F8FF60D4F80C2120469847E1
:1051B000D4F82431C4F8006101333146C4F82431F5
:1051C00028234A1CC4F80021635484F804316B6816
:1051D000FDF76DBC0025D4F8083184F8FF50D4F8F1
:1051E0000C2120469847D4F8243101332946C4F8CD
:1051F0002431FFF70BBBDBF804B0BBF1000F3EF42A
:10520000E9ADFDF7C3BF029BC4F81031FDF7DBBF6A
:1052100093681B78292B1CBF0123C4F818315268EE
:105220004146204600F092FFFDF752BC0026D4F81C
:10523000083184F8FF60D4F80C2120469847D4F850
:10524000243101333146C4F824317EE57268414689
:10525000204600F07BFF4A464146204600F038FFDA
:10526000FDF778BCD4F8083184F8FF50D4F80C214D
:1052700020469847D4F8243101332946C4F8243114
:10528000FDF7ADBF4A464146204600F05FFF52465B
:105290004146204600F01CFF3A464146204600F0B9
:1052A00055FF204603227349FBF7B2F82A464146D0
:1052B000204600F04BFFFDF74DBC4F457FF66FAE2B
:1052C0005F2D7FF46CAEFF283FF67CA8D4F8001168
:1052D000FF29C5B20FD1D4F8083184F8FF80D4F883
:1052E0000C2120469847D4F82431C4F800810133BA
:1052F000C4F8243100214B1CC4F800314E466554DB
:1053000084F80451FFF768B8D4F8083184F8FF60D6
:10531000D4F80C2120469847D4F82431C4F8006111
:1053200001333146C4F82431FFF7E5BB9146E7E588
:10533000B2681278292A08BF1E46A6E60025D4F8CE
:10534000083184F8FF50D4F80C2120469847D4F84F
:105350002431C4F8005101332946C4F82431A9E5A9
:105360000026D4F8083184F8FF60D4F80C212046D8
:105370009847D4F82431C4F8006101333146C4F8A9
:105380002431FDF7C8BB84F8FF00D4F80831D4F805
:105390000C2120469847D4F82431C4F80061013329
:1053A0003146C4F82431FDF7A4BB0026D4F80831F7
:1053B00084F8FF60D4F80C2120469847D4F82431B3
:1053C000C4F8006101333146C4F824317FE54168F7
:1053D00000293DF4D0AB0B78FEF7E1B9D0F800110D
:1053E000FF290DD02D234A1CC4F80021635484F8F2
:1053F000043104E505222049FBF70AF8FDF7AABBB2
:10540000D0F8083180F8FF70D0F80C219847D4F814
:105410002431C4F8007101333946C4F82431E1E77E
:105420000025D4F8083184F8FF50D4F80C21204628
:105430009847D4F82431C4F8005101332946C4F800
:10544000243112E50027FFF713B90025D4F80831FD
:1054500084F8FF50D4F80C2120469847D4F8243122
:10546000C4F8005101332946C4F82431FDF76BBB61
:10547000EC710108A8710108C07101083746FFF7F7
:10548000E6BB0025D4F8083184F8FF50D4F80C218D
:1054900020469847D4F82431C4F8005101332946F6
:1054A000C4F82431D3E47146026004312046FBF78E
:1054B000BFF900287FF43CADFDF760BBD4F808319C
:1054C00084F8FF60D4F80C2120469847D4F82431A2
:1054D000C4F8006101333146C4F82431FEF702BC40
:1054E0000123C4F81831FDF735BB18460744FFF710
:1054F00081BB00200744FFF77DBB0746FFF7A7BB32
:1055000010B5D0F8283182B0C0F828D104468DE813
:105510000C00FDF751FA019BC4F8283102B010BD10
:105520002DE9F0471378033B82B0154604468846C0
:10553000492B00F22382DFE813F0E7012102210268
:105540002102210221022102210221022102210243
:105550002102210221022102210221022102210233
:10556000210221022102E9018201A801E90182014F
:10557000A801CD01DA016F008C009C00AB00CF00C8
:10558000F4002102210221022102190121025C0101
:1055900021022102210221022102210221022102F3
:1055A00021022102210221022102210221022102E3
:1055B00021022102210221022102210221022102D3
:1055C0002102210221022102210221024A00D34D9F
:1055D000D0F8001105F111074FF0000808E00B4664
:1055E0000131BD42C4F80011E65484F804612DD0A5
:1055F000FF2915F8016FF2D1D4F8083184F8FF8043
:10560000D4F80C2120469847D4F824310133C4F84B
:10561000243101210023E4E7D0F80011FF2900F034
:10562000F7814A1C2023C4F80021635484F8043114
:10563000AA68D4F8283100924146C4F828D12046FF
:105640000193FDF7B9F9019BC4F8283102B0BDE818
:10565000F08711F00405F9D1D0F80031FF2B00F0EC
:105660001C822A22591CC4F80011E25484F8042137
:10567000ECE7D0F80011FF2900F0B9814A1C26237D
:10568000C4F80021635484F8043102B0BDE8F08707
:10569000D0F80011A24D4FF00008AF1C08E00B46F7
:1056A0000131BD42C4F80011E65484F80461CDD044
:1056B000FF2915F8016BF2D1D4F8083184F8FF8086
:1056C000D4F80C2120469847D4F824310133C4F88B
:1056D000243101210023E4E7924DD0F8001105F1B7
:1056E00008074FF0000808E00B460131BD42C4F83E
:1056F0000011E65484F80461A8D0FF2915F8016F61
:10570000F2D1D4F8083184F8FF80D4F80C21204677
:105710009847D4F824310133C4F8243101210023FF
:10572000E4E7814DD0F8001105F10A074FF00008B9
:1057300008E00B460131BD42C4F80011E65484F87C
:10574000046183D0FF2915F8016BF2D1D4F8083138
:1057500084F8FF80D4F80C2120469847D4F82431EF
:105760000133C4F8243101210023E4E790F8043127
:10577000282B0BD0D0F80031FF2B00F026812022FF
:10578000591CC4F80011E25484F804216A68D4F862
:105790002831664DC4F828D1414620460193009235
:1057A000FDF70AF9019BD4F80011C4F82831EF1C69
:1057B0004FF0000809E00B460131BD42C4F800116A
:1057C000E65484F804613FF441AFFF2915F8016BFA
:1057D000F1D1D4F8083184F8FF80D4F80C212046A8
:1057E0009847D4F824310133C4F82431012100232F
:1057F000E3E74F4ED0F8001106F10A0A4FF0000916
:1058000009E00B4601315645C4F80011E75484F80D
:10581000047100F0C080FF2916F8017BF1D1D4F8A3
:10582000083184F8FF90D4F80C2120469847D4F82A
:1058300024310133C4F8243101210023E3E73D4D35
:10584000D0F8001105F109074FF0000809E00B46F8
:105850000131BD42C4F80011E65484F804613FF4FC
:10586000F5AEFF2915F8016FF1D1D4F8083184F8AD
:10587000FF80D4F80C2120469847D4F82431013316
:10588000C4F8243101210023E3E72B4DD0F80011A7
:10589000AF1D4FF0000809E00B460131BD42C4F8CE
:1058A0000011E65484F804613FF4D0AEFF2915F8E6
:1058B000016BF1D1D4F8083184F8FF80D4F80C21C1
:1058C00020469847D4F824310133C4F8243101210B
:1058D0000023E3E7D0F80031FF2B00F0CC8020223A
:1058E000591CC4F80011E25484F80421C3E6D0F82E
:1058F0000031FF2B00F0AD802022591CC4F80011AC
:10590000E25484F80421C5E66A6892E60B4DD0F8AB
:10591000001105F109074FF000081BE08F72010824
:10592000A4720108A7720108B4720108C0720108CC
:10593000C47201087B720108887201086F72010845
:105940000B460131AF42C4F80011E65484F80461FB
:105950003FF47CAEFF2915F8016FF1D1D4F808317E
:1059600084F8FF80D4F80C2120469847D4F82431DD
:105970000133C4F8243101210023E3E7D0F82831B2
:10598000C0F828D12A4601930095FDF715F8019B30
:10599000C4F828315AE6D4F828316A68C4F828D106
:1059A0004146204601930092FDF706F8D4F8001115
:1059B000019BC4F82831FF293AD04A1C2923C4F896
:1059C0000021635484F8043140E600261946D0F8DB
:1059D0000C21D0F8083180F8FF609847D4F82431C2
:1059E000C4F800615A1CC4F824213346C7E60025D8
:1059F000D4F80831D4F80C2184F8FF502046984799
:105A0000D4F8243101332946C4F82431012236E682
:105A10000026D0F80831D0F80C2180F8FF609847B4
:105A2000D4F8243101333146C4F824310122F9E598
:105A30000025D4F80831D4F80C2184F8FF50204612
:105A40009847D4F8243101332946C4F8243101227F
:105A5000B4E700251946D0F80C21D0F8083180F8B9
:105A6000FF509847D4F82431C4F800515A1CC4F8A8
:105A700024212B4640E700251946D0F80C21D0F808
:105A8000083180F8FF509847D4F82431C4F8005109
:105A90005A1CC4F824212B4621E71946D0F80C21C2
:105AA000D0F8083180F8FF509847D4F82431C4F872
:105AB00000515A1CC4F824212B46D2E5002A00F0DC
:105AC000A1802DE9F04F1E46D0F8183189B0054667
:105AD00043BB0F4614464FF0010802E0D5F81831D9
